:020000040800F2
:100000003004002021410008A1400008A34000085E
:10001000A5400008A7400008A94000080000000013
:10002000000000000000000000000000BB2A0008E3
:10003000AB40000800000000752A0008B541000828
:10004000B9410008BD410008C1410008AD400008A9
:10005000C9410008CD4100083D3D0008D5410008D8
:10006000D9410008DD410008E1410008E5410008F0
:10007000E9410008ED410008F1410008F5410008A0
:10008000F9410008FD41000801420008054200084E
:10009000094200080D4200081142000815420008FC
:1000A00019420008F3240008B9150008E9120008F5
:1000B000294200082D42000831420008354200085C
:1000C000394200083D42000841420008454200080C
:1000D000494200084D4200085142000855420008BC
:1000E000594200085D42000861420008654200086C
:1000F000694200082DE9F04F85B004000D0016009C
:100100001F00DDF83880DDF83C90B6B2B00000F09A
:100110009FFE8346BBF1000F0DD0602000F098FEDB
:100120008246BAF1000F02D0CAF830B005E0584656
:1001300000F015FF01E000208246BAF1000F14D054
:1001400000200390CDF808A0CDF80490CDF80080F1
:100150003B00B6B232002900200000F00DF85046F6
:1001600000F079F80120049002E05FF0FF30049085
:10017000049805B0BDE8F08F2DE9F94F83B00C006D
:1001800015000E9E0F9FDDF84080A8000190A5206D
:100190000090D8F830B0009A0199584600F090FFCE
:1001A000D8F8300000EB8500001F81465FEAD909CE
:1001B0005FEAC90919F00700002805D0DFF800152B
:1001C00040F22B3001F03AF800208246BAF1100FCD
:1001D0000CD214F80A0008EB0A0181F8340014F874
:1001E0000A00002802D01AF1010AEFE7002088F87F
:1001F0004300052E01D304200600C8F82C60C8F87F
:100200004C600020C8F8500018F1040001F0E7F835
:1002100018F1180001F0E3F8C8F81080D6F10500D5
:10022000C8F81800C8F824800020C8F8540000203E
:10023000C8F85800002088F85C00049A03994846E2
:1002400001F00EF9C8F80000002F01D0C7F80080B7
:1002500005B0BDE8F08F10B5040001F067F9DFF8D4
:1002600020030068401CDFF818130860DFF814034F
:10027000006800280AD1DFF80C030460DFF80003EF
:100280000068012811D100F0A5FB0EE0DFF8F802AC
:100290000068002809D1E06ADFF8E8120968C96A35
:1002A000884202D3DFF8DC020460DFF8E002006875
:1002B000401CDFF8D8120860DFF8D00200686064E4
:1002C000DFF8CC0200680121E26A91400843DFF8C0
:1002D000C0120860211DDFF8EC03E26A14235A43C0
:1002E000104401F07FF801F03CF9DFF89C0200684F
:1002F00000280FD0DFF88C020068C06AE16A8842EB
:1003000008D25FF08050DFF854150860BFF34F8FBC
:10031000BFF36F8F10BD38B504000025002C13D03B
:10032000DFF8A8030068002805D0DFF8941340F236
:10033000CF4000F083FF00F08DF80021200000F096
:1003400023FD00F08FF80500002D08D15FF08050EC
:10035000DFF808150860BFF34F8FBFF36F8F31BD13
:10036000F8B504002700002F05D1DFF8541340F240
:10037000FB4000F063FFDFF80C020068874202D107
:10038000002005002AE001F0D1F87869060001F0AC
:10039000E8F8DFF8CC040068864204D0DFF8C40433
:1003A0000068864202D10220050017E0DFF8B80499
:1003B000864208D1B86A002802D1032005000DE06A
:1003C000022005000AE0DFF80003864201D0002E7B
:1003D00002D10420050001E0012005002800C0B280
:1003E000F2BD1CB5DFF83807019000200090002313
:1003F0004622DFF884170FF2B150FFF77BFE0400AE
:10040000012C02D101F05AF90400012C18D150201E
:1004100080F31188BFF34F8FBFF36F8F5FF0FF3012
:10042000DFF8581708600120DFF85C110860002031
:10043000DFF8E413086000F011FF01F033F808E082
:1004400014F1010F05D1DFF8781240F2847000F04A
:10045000F5FE13BDDFF874020068401CDFF86C1273
:100460000860704770B500240025DFF8600200685E
:10047000002805D1DFF848124FF4FD6000F0DEFEE1
:1004800001F054F8DFF844020068401EDFF83C1227
:100490000860DFF838020068002858D13848006842
:1004A000002854D0DFF800070068002827D0DFF8C4
:1004B000F806C068C068040014F1180000F0BBFF23
:1004C000201D00F0B8FF324800680121E26A914027
:1004D00008432F490860211DDFF8E801E26A142370
:1004E0005A43104400F07EFFE06A26490968C96A51
:1004F0008842D7D30120DFF80C180860D2E7002C1F
:1005000001D000F023FBDFF8F8070668002E0ED0BC
:1005100000F040F8002803D00120DFF8E817086059
:10052000761E002EF4D10020DFF8D4170860DFF823
:10053000D407006800280AD0012005005FF0805031
:10054000DFF818130860BFF34F8FBFF36F8F01F010
:1005500008F8280070BDDFF8C0120968080070476D
:1005600080B5DFF8BC050068002804D1544940F686
:100570005F1000F063FEDFF8A805006802BD000010
:10058000A83D0020983D0020B43D0020C43D00203F
:10059000B03D00202DE9F04100264C4800680028BD
:1005A0007AD19D480068471C9B480760002F1CD1EA
:1005B000AB4800680068002804D0414940F6D910D3
:1005C00000F03CFEA64800688046A6480068A449A2
:1005D0000860A448C0F80080DFF884070068401C69
:1005E000DFF87C17086000F0B1FADFF890050068CA
:1005F00087423DD39A4800680068002805D15FF023
:10060000FF30DFF87815086032E095480068C06870
:10061000C068040060680500AF4203D2DFF85C05E3
:10062000056025E0201D00F006FFA06A002803D029
:1006300014F1180000F0FFFEDFF828070068012120
:10064000E26A91400843DFF81C170860211D1D482D
:10065000E26A14235A43104400F0C4FEE06ADFF853
:1006600008170968C96A8842C4D301200600C1E797
:100670001448DFF8F4160968C96A14225143405837
:10068000022801D301200600DFF874060068002864
:100690000BD100F0D1FD08E0DFF864060068401CD3
:1006A000DFF85C16086000F0C7FDDFF85806006848
:1006B000002801D0012006003000BDE8F0810000D4
:1006C0009C3E0008303C0020F83C0020D03D00203B
:1006D00038B5DFF8C0030068002804D00120DFF837
:1006E000241608607EE00020DFF81816086000215C
:1006F000DFF8780601F06AFADFF83C060068DFF8F8
:100700003C16096851EA0040DFF8641608600121D0
:10071000DFF8580601F05AFADFF858060068DFF8EB
:100720005016096888420CD2DFF83C060068416D1B
:10073000DFF83C2612685118DFF838261268891A4B
:100740004165DFF82C060068DFF828160860DFF83E
:1007500018060068006B05005FF0A53004002868EB
:10076000A04208D16868A04205D1A868A04202D181
:10077000E868A04209D0DFF8F005006810F1340104
:10078000DFF8E405006800F04FFDDFF8D8050068E9
:10079000B0FA80F0D0F11F000400DFF8E00514216A
:1007A00001FB04F14058002805D1DFF8D41540F6CC
:1007B000F62000F043FDDFF8C415142202FB04F21A
:1007C00011440800416849684160416810F108021D
:1007D000914202D14168496841604068C068DFF8D1
:1007E0008815086031BD38B504000D00002C05D116
:1007F000DFF88C1540F6063000F020FDDFF86805C4
:10080000006810F11801200000F0F8FD0121280017
:1008100000F0BAFA31BD0000AC3D002070B5040014
:100820000D001600002C05D1DFF8541540F63130CC
:1008300000F004FDDFF83005006810F11801200019
:1008400000F0D0FD002E02D05FF0FF300500310037
:10085000280000F099FA70BD0000000004ED00E0EF
:100860009C3D0020A03D00200C3D002070B5040000
:10087000E068C0680500002D05D1DFF8041540F6DA
:10088000613000F0DBFC15F1180000F0D4FD814868
:100890000068002816D1281D00F0CDFDDFF8C40443
:1008A00000680121EA6A91400843DFF8B814086043
:1008B000291DDFF8C804EA6A14235A43104400F0E3
:1008C00091FD05E015F11801DFF8DC0200F08AFD6A
:1008D000DFF894040068C06AE96A884206D2012001
:1008E00006000120DFF89014086001E000200600F7
:1008F000300070BD10B50400002C05D1DFF8801465
:1009000040F6C13000F09AFCDFF854040068206023
:10091000DFF8F8040068606010BDF8B504000D0051
:10092000002C05D1DFF8581440F6CB3000F086FCDF
:10093000002D05D1DFF8481440F6CC3000F07EFCE5
:1009400000F0F4FDDFF83C040768286810F1010F9F
:1009500002D1002006001DE0DFF8040400682168D1
:10096000884205D06068874202D30120060011E06A
:100970006068381A296888420AD22868C01B6168F2
:10098000081828602000FFF7B5FF0020060001E0EE
:100990000120060000F0E5FD3000F2BD0120DFF887
:1009A000D81308607047000010B5040000F03FF84D
:1009B000DFF8C8030068022808D35FF08050DFF832
:1009C00050140860BFF34F8FBFF36F8F00F02BFC04
:1009D000ECE7000010B500200400052C09D2DFF878
:1009E0009C03142101FB04F1084400F0E9FC641CA1
:1009F000F3E7DFF8200400F0E3FCDFF81C0400F06C
:100A0000DFFC694800F0DCFCDFF8100400F0D8FCE3
:100A1000DFF80C0400F0D4FCDFF8F803DFF804146E
:100A20000860DFF8F403DFF80014086010BD38B583
:100A3000DFF8F803006800282BD0FFF70BFDDFF884
:100A4000DC030068002801D1012400E00024FFF746
:100A500009FD002CECD100F069FDDFF8C003C0688F
:100A6000C0680500281D00F0E6FCDFF8C40300683C
:100A7000401EDFF8BC130860DFF8B0030068401EBA
:100A8000DFF8A813086000F06CFD280000F055F8AE
:100A9000CEE731BDD03D00202DE9F04104000D002E
:100AA00016001F00002C04D1DFF88803D0F8008066
:100AB00000E0A046C5F8008018F134006860D8F85E
:100AC0002C002861D8F83000E861D8F84400A8600C
:100AD000287B032809D1FFF7BDFCD8F8280000289F
:100AE00001D002202873FFF7BDFCD8F84C006861E4
:100AF000D8F85400A861FFB2052F01D02F7303E08E
:100B00002000FFF72DFC2873002E05D0D8F8300008
:100B100000F008F8288401E000202884BDE8F08176
:100B2000CC3D0020010000200A78A52A02D1491CF2
:100B3000401CF9E7800880B2704710B50400206BB4
:100B400000F00DFA200000F00AFA10BDDFF8D41210
:100B500009680968002904D15FF0FF31074A116074
:100B600008E0DFF8C0120968C968C9680800416870
:100B7000024A11607047000068410008C83D00202B
:100B8000DFF8B4120968002902D10121080009E048
:100B9000DFF8A8120968002902D10221080001E04B
:100BA0000021080070470000E43C002038B5040034
:100BB0002500002C4ED0E86ADFF878120968C96A6F
:100BC000884247D2A869002806D4DFF86802006886
:100BD000C06AD0F10500A8616869DFF8A011EA6A6F
:100BE00014235A43114488422FD1281D00F023FCBE
:100BF000002811D1DFF88401E96A142251434058DA
:100C0000002809D1DFF85C0100680121EA6A9140FF
:100C10008843DFF850110860DFF818020068C06AE6
:100C2000E862DFF8400100680121EA6A9140084368
:100C3000DFF830110860291DDFF84001EA6A14234B
:100C40005A43104400F0CEFB04E0DFF8E8010068EE
:100C5000C06AE86231BD000070B5040025000026BE
:100C6000002C4BD0DFF800010068854205D0DFF88A
:100C7000101140F6C76000F0E1FA286D002805D198
:100C8000DFF8FC1040F6C96000F0D8FA286D401E6D
:100C90002865E86AE96C884230D0286D00282DD19B
:100CA000281D00F0C8FB00280FD1DFF89401E96A85
:100CB000142251434058002807D12A4800680121D6
:100CC000EA6A9140884327490860E86CE862E86A6C
:100CD000D0F10500A861234800680121EA6A91402B
:100CE000084320490860291DDFF85401EA6A1423EB
:100CF0005A43104400F076FB01200600300070BD1E
:100D0000B83D0020BC3D002030B589B00400FFF79D
:100D100027FC05000523012269462800FFF7BCFED9
:100D20000698DFF820110968401A20600698DFF85D
:100D30001411086009B030BD603D0020241001404E
:100D4000DFF8F0000068002805D0DFF8E800006850
:100D5000016D491C0165DFF8DC0000687047000088
:100D6000C03D0020B03D0020983D00200010014013
:100D7000D83D0020D43D0020BC3D0020303C002068
:100D80009C3E0008AC3D0020F8B504000D001F4853
:100D9000076828480068001D00F04DFB00280BD1B3
:100DA00024480068284909680122C06A12FA00F044
:100DB00031EA00002449086014F1010F08D1002D28
:100DC00006D01C480068011D154800F00BFB1BE015
:100DD000E0190600174800684660BE4207D2154871
:100DE0000068011D1048006800F008FB0CE0114885
:100DF0000068011D0B48006800F000FB1348006804
:100E0000864201D211480660F1BD0000AC3D0020D1
:100E100004ED00E0BC3C0020D03C0020F83C002069
:100E20000C3D00209C3D0020A03D0020A43D002062
:100E3000A83D0020983D0020B43D0020D03D00207A
:100E4000303C0020DC3D0020B03D0020C83D0020AB
:100E50002DE9F04104005FF00008FFF7FBFA90482D
:100E60000068002801D100F0B1F88E480068044203
:100E700062D1002C11D08C480068041914F0070FBF
:100E80000BD014F1080014F00701441A14F0070FF6
:100E900003D08649BF2000F0D1F9002C4CD0844803
:100EA0000068A04248D383480600824800680500D5
:100EB0006868A04205D22868002802D02E002D685C
:100EC000F6E777480068854236D030687649096889
:100ED00008448046286830607348006840006968AC
:100EE000091B884211D205EB0400070017F0070028
:100EF000002803D06D49EC2000F0A0F96868001BC1
:100F000078606C60380000F098F86948006869689B
:100F1000401A67490860664800686749096888425E
:100F200003D2634800686449086068685D490968DD
:100F30000843686000202860FFF794FAB8F1000FBA
:100F400001D100F068F918F00700002804D05749D3
:100F50004FF4967000F072F94046BDE8F08170B52C
:100F600004002600002C30D04F4800684042064460
:100F7000350068684B490968084204D14B494FF471
:100F8000A07000F05BF92868002804D0474940F2BF
:100F9000411000F053F9686842490968084214D0CA
:100FA0002868002811D168683E490968884368604C
:100FB000FFF750FA3E480068696808183C49086025
:100FC000280000F03AF8FFF74DFA70BD30B44FF446
:100FD00060533A4C220012F0070F05D0D21DD20800
:100FE000D2009B1A354CE3181100324C21600024CA
:100FF000304D6C605C1822002B4C2468121BD20808
:10100000D200274C22600024254D2D686C600024FE
:10101000234D2D682C600800141A4460204C24686D
:1010200004604468244D2C604468214D2C605FF0BE
:1010300000441C4D2C6030BC704710B41D4B1A008E
:101040001368834201D21268FAE7110053680B4417
:10105000834204D153684468E318536010000100D0
:1010600043680B441468A34211D113680C4C2468E4
:10107000A34208D0436814686468E31843601368A7
:101080001B68036005E0064B1B68036001E0136802
:101090000360824200D0106010BC70470000000066
:1010A000503D00205C3D0020804100080C3E0008BF
:1010B000543D0020483D0020583D002030040020D1
:1010C00062F30F2262F31F42401810F0030308D0AE
:1010D000C91A1FD3DB0748BF00F8012D28BF20F82D
:1010E000022D130030B414461546103928BF20E9EC
:1010F0003C00FAD8490728BF20E90C0048BF40F857
:10110000042D890028BF20F8022D48BF00F8012DCA
:1011100030BC7047C91818BF00F8012DCB0728BF95
:1011200000F8012D7047000080B500F004F800F0D1
:10113000A3FD002002BD00B585B04FF4404000F093
:1011400085FF4FF4407001F003F87FF0040001F0D8
:1011500039F801F07EF801213F2000F0B9FF0121AC
:101160005FF0004000F0D2FF0121012000F0BFFF3E
:101170004FF4006001F061F9102001F06CF90028D3
:10118000FAD10120019000208DF8080000208DF890
:101190000B0003208DF8090001A97D4801F0FEF93C
:1011A0000021002001F07CFA0120039000208DF83E
:1011B000100008208DF8110001208DF8120003A8FE
:1011C00001F098FA06208DF800000F208DF801003C
:1011D00000208DF8020001208DF80300684600F021
:1011E000BCFFC020019001208DF8080000208DF880
:1011F0000A0000208DF80B0001208DF8090001A9DC
:10120000644801F0CBF9802063490880402062499E
:10121000088005B000BD502080F31188BFF34F8FC8
:10122000BFF36F8FFEE77047502282F31188BFF340
:101230004F8FBFF36F8FFEE77047000038B5040093
:101240000D000020009000F071F90098002802D1F4
:1012500000BF00BFF9E700F084F931BD00B585B0EB
:101260000121102000F043FF00234FF40042002131
:101270004A4800F0E1FC4FF6FF7002900020ADF804
:1012800004000020ADF80C000020ADF8060001A914
:10129000424800F067FC4148008850F004003F4994
:1012A0000880012201213D4800F09EFC002201211E
:1012B0003B4800F099FC1B208DF800000F208DF8B2
:1012C000010000208DF8020001208DF8030068461F
:1012D00000F043FF0121314800F0AAFC01212F4812
:1012E00000F074FC05B000BD80B501212B4800F072
:1012F00086FC002810D00021284800F067FC29480F
:101300000068401C274908600121244800F090FC37
:101310000121224800F05AFC01BD70B504000025EF
:101320002148FFF7F1FC00211C4800F04FFC1D484C
:1013300000681E49096851EA00400500012117486C
:1013400000F044FC1A480068281A1A490860184836
:1013500005601548006801F01FFA0600154800688E
:1013600001F01AFA0100300001F026FA1249086073
:101370005FF07E501049096801F09CFA0F4901F0B6
:101380000DFB0D4908600C480068206070BD00002E
:1013900000000240000402401A0402400010014014
:1013A00000080140603D0020683D002024100140FD
:1013B0006C3D0020703D0020643D00200000C842CC
:1013C00010F1080141605FF0FF31816010F1080108
:1013D000C16010F108010161002101607047002126
:1013E0000161704742684A6093688B6093685960F6
:1013F0009160086103685B1C0360704710B40B6860
:1014000013F1010F02D10469220008E010F1080471
:10141000220054682468A34201D35268F9E7546853
:101420004C604C68A1608A60516008610468641C6B
:10143000046010BC7047010008698A684B689A60B4
:101440004A688B685A6042688A4201D18A68426061
:1014500000220A610268521E0260006870470000A4
:10146000001F5FF080730360001F4B085B00036088
:10147000001F0FF20D03036014380260203870471C
:1014800080B56348006810F1010F03D06149EF2077
:10149000FFF7D4FE502080F31188BFF34F8FBFF3C6
:1014A0006F8FFEE700B583B05B4801780191FF21A3
:1014B000017001788DF800109DF8001011F05001B6
:1014C000564A11700721564A11609DF8001009060E
:1014D0000AD553490968491E514A11609DF8001008
:1014E00049008DF80010F0E74D49096809024C4A9F
:1014F00011604B49096811F4E061494A1160019992
:1015000001704848006850F470004649086045483A
:10151000006850F070404349086000F08DF80020EA
:101520003B49086001F0D9FA00200EBD80B550207B
:1015300080F31188BFF34F8FBFF36F8F344800687B
:10154000401C3349086032480068012808D13648F9
:101550000068000604D02F4940F24D10FFF76EFEE0
:1015600001BD80B52A480068002804D129494FF4FC
:10157000AA70FFF763FE26480068401E24490860F1
:1015800023480068002802D1002080F3118801BDA3
:1015900080B5502080F31188BFF34F8FBFF36F8F5A
:1015A000FEF7F8FF002803D05FF080501E49086066
:1015B000002080F3118801BD80B5FFF7E9FF01210C
:1015C0001A4800F035FB01BD38B5EFF30580040083
:1015D000102C0ED316480068005D050028000F4946
:1015E0000978C0B2884204D20A4940F27B20FFF752
:1015F00025FE0B4800680F49096811F4E061884234
:1016000004D2044940F28B20FFF718FE31BD0000E0
:1016100004000020B83D000800E400E0F63D002092
:101620008C3D002020ED00E004ED00E0000C0140C6
:10163000904100080CED00E000B585B001210820C4
:1016400000F055FD00234FF4004200211A4800F03D
:10165000F3FA1F2002900020ADF804000020ADF83E
:101660000C000020ADF8060001A9134800F07AFA3A
:101670001148008850F004000F4908800122012120
:101680000D4800F0B1FA1A208DF800000F208DF8F7
:10169000010000208DF8020001208DF8030068464B
:1016A00000F05BFD0121044800F0C2FA012102486C
:1016B00000F08CFA05B000BD000C01401CB5002400
:1016C00000F014FADFF87004006800280DD0DFF88D
:1016D0006C0401900420009000234622DFF860147F
:1016E0000FF27D10FEF706FD0400002C05D1DFF897
:1016F000541440F23310FFF7A1FD200016BD2DE970
:10170000F04383B004000D0016001F00DDF82880B0
:101710002C20FFF79DFB8146B9F1000F09D0CDF8D1
:101720000490CDF800803B0032002900200000F03A
:1017300003F84846BDE8FE832DE9F84304000D0098
:1017400016001F00DDF82080DDF82490002D05D163
:10175000DFF8F0134FF4C670FFF770FDB9F1000F1A
:101760000FD000F0C3F9C9F80040C9F81850C9F803
:101770001C60C9F82070C9F8248019F10400FFF733
:101780002EFEBDE8F1832DE9FE4304000D00160096
:101790001F00DDF828805FF00009002C05D1DFF87C
:1017A000A4134FF4D370FFF749FDDFF88C030068F2
:1017B000002825D0009501960294062D17DAFFF730
:1017C000DFF9022809D1002342466946DFF86803A1
:1017D000006801F020FA814612E0002300226946E9
:1017E000DFF85403006801F016FA814608E0002390
:1017F0003A006946DFF84003006801F0DDFA8146EF
:101800004846BDE8FE83F8B504000D00DFF8380354
:101810000068C068C768381DFFF70DFEF869012829
:1018200019D123002A00B8690119380000F088F89E
:10183000002810D000200090002322000021380052
:10184000FFF7A1FF0600002E05D1DFF8F8124FF4D4
:101850000270FFF7F3FC3800796A8847F1BD000099
:1018600038B50400684600F040F8050000992800EB
:1018700000F003F800F08CF8F4E770B582B00400D3
:101880000E00FEF7E7FD684600F046F805000098F8
:10189000002827D1002E08D1A54206D3FEF7E2FD8D
:1018A00029002000FFF7AFFF1EE0002E07D0A74859
:1018B00000680068002801D1012600E000263200FF
:1018C000611B9D48006801F00FFDFEF7CBFD00286D
:1018D0000AD15FF080509E490860BFF34F8FBFF37D
:1018E0006F8F01E0FEF7BEFD73BD0100964A1268DE
:1018F0001268002A01D1012200E00022D2B20A605F
:101900000A68002A05D1904A1268D268126810004D
:1019100001E000221000704738B50400FEF71BFEFE
:1019200005008C480068854204D200F09AF8012036
:10193000206001E00020206086480560280032BD5C
:101940002DE9F04104000D0016001F005FF00008B3
:1019500065602461AE420CD3F01BA169884202D3BA
:101960000120804611E0211D78480068FFF746FD00
:101970000BE0BE4204D2BD4202D30120804604E007
:10198000211D71480068FFF739FD4046BDE8F08130
:1019900070B586B00023002201A96748006801F0F5
:1019A000E2FA00285BD001980028F3D403980400E1
:1019B0006069002802D0201DFFF73DFD04A8FFF755
:1019C000ABFF0600019800280ED002280CD00BD3E4
:1019D00004282DD02BD3062806D03BD3082826D0A8
:1019E00002D3092824D039E0029B32000298A16971
:1019F00009182000FFF7A4FF002817D02000616A13
:101A00008847E069012811D1002000900023029846
:101A1000A1690A1800212000FFF7B5FE0500002D7E
:101A200004D1484940F22130FFF708FCB2E7B1E7A2
:101A30000298A061A069002804D142494FF44E7079
:101A4000FFF7FCFB33003200A06981192000FFF78B
:101A500077FF9FE72000FFF782FA9BE79AE706B03F
:101A600070BD2DE9F04182B0374800680068002859
:101A700031D035480068C06800680400324800680A
:101A8000C068C0680700381DFFF7D5FC3800796AC8
:101A90008847F8690128E7D1B86900190500AC4208
:101AA00007D27D603F61391D27480068FFF7A6FC1B
:101AB000DAE7002000900023220000213800FFF721
:101AC00062FE8046B8F1000F04D11E4940F2923008
:101AD000FFF7B4FBC8E71C48006806001B48006815
:101AE0001949086019480660BDE8F38180B5FFF721
:101AF0001DFD1148006800281BD11748FFF760FC46
:101B00001648FFF75DFC14480F49086013480F4959
:101B1000086000220C210A2001F038F8064908600C
:101B200005480068002804D00D490348006801F00A
:101B3000C1FBFFF716FD01BDE83D0020EC3D002094
:101B400070410008DC3E0008E03D0020E43D00203C
:101B500004ED00E0F03D0020203D0020343D002059
:101B600078410008002203881A00B0F1804F08D0A5
:101B7000104B984205D0104B984202D00F4B984220
:101B800004D14FF68F731A404B881A430C4B98427E
:101B900007D00C4B984204D04FF6FF431A400B89F4
:101BA0001A4302804B68C3620B880385012383823A
:101BB000704700000004004000080040000C004096
:101BC000001000400014004041627047C9B2002973
:101BD00004D0028852F00102028004E002884FF62D
:101BE000FE731A4002807047D2B2002A03D0838964
:101BF0000B43838102E083898B438381704730B438
:101C00000200002000230024158A0D402B00958936
:101C10000D402C009BB2002B05D0A4B2002C02D0AA
:101C20000125280001E000252800C0B230BC704723
:101C300089B2CA4302827047F8B504000D0016004D
:101C40001F003B009BB2320092B2290089B22000F3
:101C500000F005F8208950F480402081F1BD30B4B7
:101C6000002405892C0004F0FF0452EA03250D43EB
:101C70002C43048130BC70477CB50024002500262D
:101C800000F0F9F80FF2F50000900023012244F66D
:101C90002061DFF87803FFF732FD04000FF2351002
:101CA00000900023012244F62061DFF86403FFF76F
:101CB00026FD05000FF2751000900023012244F666
:101CC0002061D448FFF71BFD0600002C09D0FEF769
:101CD00042FC002100910023020001212000FFF7B7
:101CE00052FD002D09D0FEF736FC020000200090C6
:101CF000002301212800FFF746FD002E09D0FEF742
:101D00002AFC002100910023020001213000FFF78E
:101D10003AFD002001900520009000234622BAA140
:101D20000FF20D00FEF7E6F9FEF75BFBFEE70000A1
:101D300010B50400B8480068401CB74908604FF46B
:101D40007A70FEF7E8FAB548FFF7E7FAB24800689C
:101D50001428EFDBB1480068B14901F0EBFA02D872
:101D6000012000F086FBAD480068AE4901F0F4FAAE
:101D7000E0D2002000F07DFBDCE70000EA21AA4A67
:101D80001268521CA84B1A60A84A128892F080026E
:101D9000A64B1A802D2291FBF2F14901002211007D
:101DA00042F21072914202DA491C491CF8E7012202
:101DB0009F4B9A420CDA2D2391FBF3F141F2EB1386
:101DC0005943092391FBF3F1ED235943521CEFE7EB
:101DD00070470000EA21974A1268521C954B1A601E
:101DE000924A128892F04002904B1A802D2291FB69
:101DF000F2F149010022110042F21072914202DA1E
:101E0000491C491CF8E70122894B9A420CDA2D2320
:101E100091FBF3F141F2EB135943092391FBF3F1E9
:101E2000ED235943521CEFE770470000EA21824A34
:101E30001268521C804B1A602D2291FBF2F149016D
:101E40000022110042F21072914202DA491C491C30
:101E5000F8E70122764B9A420CDA2D2391FBF3F13D
:101E600041F2EB135943092391FBF3F1ED2359435D
:101E7000521CEFE7704700B583B00121072000F046
:101E800027F901214FF4007000F040F9012000F023
:101E9000CFFA012000F0E6F85FF4803000F0F6F8A9
:101EA000012000F011F948F20E70009002208DF828
:101EB00004006946614800F071FB0B2201215F4874
:101EC00000F0C0FB0B2202215C4800F0BBFB0B22A0
:101ED00003215A4800F0B6FB0B220821574800F0B6
:101EE000B1FB0B220921554800F0ACFB0B220A2163
:101EF000524800F0A7FB0B220F21504800F0A2FB34
:101F00004FF63870009002208DF8040069464C4866
:101F100000F044FB0B220321494800F093FB0B2205
:101F20000421474800F08EFB0B220521444800F0B5
:101F300089FB0B220821424800F084FB0B22092177
:101F40003F4800F07FFB0B220A213D4800F07AFB5E
:101F50000B220B213A4800F075FB0B220C2138486C
:101F600000F070FB0B220D21354800F06BFB0B22BB
:101F70000E21334800F066FB0B220F21304800F0A1
:101F800061FB40F6CF70009002208DF80400694696
:101F90002C4800F003FB0B2200212A4800F052FBE2
:101FA0000B220121274800F04DFB0B22022125487E
:101FB00000F048FB0B220321224800F043FB0B22D8
:101FC0000621204800F03EFB0B2207211D4800F0AF
:101FD00039FB0B2208211B4800F034FB0B2209219E
:101FE000184800F02FFB0B220A21164800F02AFBAC
:101FF0000B220B21134800F025FB01F0BFF912481A
:1020000001F059FD07BD0000435055003041000864
:102010003C41000848410008743D0020783D002004
:1020200001005C42000034427C3D00201404024068
:1020300021D61300803D0020843D00200000024096
:102040000004024000080240604100080021DFF85F
:10205000E4201268110031F460410143DFF8D4201C
:10206000116070470021DFF8D0201170DFF8C81030
:10207000087070470021DFF8B8201268110031F0B5
:10208000F0010143DFF8A82011607047002110F42F
:102090004032B2F5403F09D1244A1268110031F0B4
:1020A000C04110F0C0421143204A1160234A126817
:1020B00032F44032214B1A60204A126810F4403347
:1020C0001A431E4B1A607047C0B21D490860704722
:1020D000C9B2002905D01B4A12680243194B1A6085
:1020E00004E0184A12688243164B1A607047C9B25E
:1020F000002905D0144A12680243134B1A6004E009
:10210000114A12688243104B1A607047C9B2002905
:1021100005D00E4A126802430C4B1A6004E00B4AC9
:1021200012688243094B1A60704700000038024071
:102130000838024004380240353802403438024042
:10214000D80647421C38024020380240243802405A
:1021500025490143254A1160704770B400230021CE
:102160000F22C478002C21D0204C246814F4E064A1
:10217000D4F5E064240A2300D3F104042100D2B290
:102180001A4144788C4023008478144023431B0177
:10219000174C057863550124057815F01F05AC40F0
:1021A000144D0678761145F8264009E0012405789B
:1021B00015F01F05AC40104D0678761145F8264005
:1021C00070BC7047042806D10C49096851F004011D
:1021D0000A4A116005E00949096831F00401074A1B
:1021E00011607047000000000000FA050CED00E0EF
:1021F00000E400E000E100E080E100E010E000E049
:1022000080B57B48006850F480707949086079484F
:10221000006879490840774908607548006877493F
:102220000840734908607248006830F480207049A3
:1022300008607048006830F47D006E490860002036
:102240006F49086000F071F85FF000606D49086048
:1022500001BD70B400200021002200230024654D40
:102260002D6815F00C0528000500002D06D0042D62
:1022700012D0082D14D00C2D16D03BE0624D2D68E5
:10228000C5F342352C000125661CB5404FF40046CD
:1022900075435E4E35603AE05D4D5C4E356036E02C
:1022A0005C4D5A4E356032E0524D2D6815F4701574
:1022B0002900504D2D6815F440052A00564D890C13
:1022C000695C920D521C4B4D2D6815F480352B0026
:1022D000002B07D14E4D05FB01F5B5FBF2F54B4E3A
:1022E000356006E04B4D05FB01F5B5FBF2F5474EB9
:1022F00035600CE0444D2D68C5F342352C000125B6
:10230000661CB5404FF400467543404E3560394D6C
:102310002D68424EC5F30315755D28003B4D2D68B1
:10232000C5403A4E356070BC704782B000200190C5
:10233000002000902E48006850F001002C490860F1
:102340002B48006810F0020000900098002803D18C
:102350000198B0F5A06FF3D125480068800702D539
:102360000120009001E000200090009801283DD15C
:102370002B48006840084000294908602848006848
:1023800030F00200264908602548006830F004005B
:10239000234908602348006850F0805021490860B4
:1023A0004FF400602049086020480068C006FBD454
:1023B000104800680F4908600E4800680D49086021
:1023C0000C4800680B4908600A48006880088000D3
:1023D000084908600748006850F001000549086096
:1023E0000448006810F00C000428F9D102B07047CE
:1023F00000380240083802400CC0FF88FEFFFEEEA5
:102400000C38024008ED00E0043802400C000020C7
:102410000024F40000127A00100000201C000020AC
:10242000003C02402438024000700040047000402C
:10243000C0B2DFF83C11086070470021DFF834219A
:102440001268110031F4C051014331F00C02DFF881
:1024500024311A60704701000020DFF81C21126847
:102460000A4202D00122100001E000221000C0B296
:10247000704730B589B004006846DFF800112422A7
:1024800001F076FB00F057F80500002C02D0012C7B
:102490000CD016E0042D04D30420DFF8E41008600B
:1024A0000FE0681CDFF8D81008600AE0002D04D1A6
:1024B0000020DFF8CC10086003E0681EDFF8C010D1
:1024C00008606846DFF8B810096850F82100FFF787
:1024D000D1FDFFF7BEFEDFF8A800006800F03AF873
:1024E000FFF7ABFF1020FFF7B6FF0028FAD109B0C5
:1024F00030BD80B500212548FFF766FB0021234849
:10250000FFF764FB002201212048FFF76DFB01214A
:102510001E48FFF78DFB1B480068FFF7ABFDFFF778
:1025200098FE19480068FFF788FF1020FFF793FF17
:102530000028FAD101BD00B585B0684614491022C3
:1025400001F016FB684613490968C1F30311405CAA
:1025500005B000BD10B58AB0040068460E492422BB
:1025600001F006FB684650F824000AB010BD0000D8
:1025700020000E420070004004700040104000082F
:10258000943D0020903D00200800002000080140FC
:10259000104100080838024034400008F0B400221E
:1025A0000023002400252A00102A49D20125954045
:1025B0002B000D681D402C009C423FD1056803266E
:1025C0001700FFB27F00BE40B543056005680E7975
:1025D0001700FFB27F00BE40354305600D79012D25
:1025E00002D00D79022D19D1856803261700FFB29C
:1025F0007F00BE40B543856085684E791700FFB205
:102600007F00BE4035438560858801269640B543EE
:10261000858085888E79964035438580C5680326F8
:102620001700FFB27F00BE40B543C560C568CE79D4
:102630001700FFB27F00BE403543C560521CB3E7B0
:10264000F0BC7047F0B400230024D2B211F00705AB
:10265000EDB2AD0012FA05F52B0089B2CD1000EBFA
:10266000850589B2CE1000EB8606366A0F2711F079
:10267000070C5FFA8CFC5FEA8C0C17FA0CF7BE4370
:102680002E6289B2CD1000EB85052D6A1D432C000A
:1026900089B2CD1000EB85052C62F0BC70470000BC
:1026A00030B400220F2311F00304E4B2A400A340CD
:1026B0001A000F4BC9B28C1053F8243093430C4CC2
:1026C000C9B28D1044F82530094BC9B28C1053F8AB
:1026D0002430C0B211F00304E4B2A40010FA04F4F0
:1026E0002343034CC9B28D1044F8253030BC7047E9
:1026F000080001400021234A11008279002A36D0C7
:10270000204A126803689A431E4B1A601E4A1268D8
:1027100003689A431C4B1A60027951180A680368CF
:102720001A430A60194A126803689A43174B1A60E1
:10273000174A126803689A43154B1A604279102AA7
:102740000CD1124A126803681A43104B1A60104ADF
:10275000126803681A430E4B1A600EE0094A110012
:10276000427951180A6803681A430A6005E0027941
:1027700051180A6803689A430A607047054908605F
:1027800070470000000401400404014008040140B7
:102790000C04014014040140002800BF0AD0B0FA24
:1027A00080F18840D1F19D01C905020672F1004215
:1027B00041EB10207047000010B5FF2313EAD054FE
:1027C0001DBF13EAD1529C429A4239E0A41ADA079B
:1027D00080EA0103134042EA012142EA0020421A42
:1027E0003CBF641E01EB4202090AB2FBF1FE01FB91
:1027F0001E221202B2FBF1F001FB10226EF30F2039
:102800001202B2FBF1FE4EEA00207F3406DDFE2C00
:1028100024DA53EA500050EBC45010BDD4F1020446
:1028200001FB1E2240F08071192C1DDC21FA04F0FE
:10283000C4F12004A140114371F10042584110BD80
:102840009C421ABF03EAD1529A420FE080EA010E7D
:102850000EF00043400004D0490016D143F0FF4081
:1028600010BD490008BFD343180010BD9C4205D1DC
:10287000D21AF7D001F00041484010BD4A0212BF01
:102880000846484000F0004010BD4AB90902B1FABC
:1028900081F2914044B1A418C00140F000409EE78D
:1028A000C90141F0004152420002B0FA80F4A04058
:1028B000141B94E790EA010F44BF81F0004101F03E
:1028C00083B900BF431A4FF000423EBF5340C01AC5
:1028D000C91800BFD3095FEAD05C13EB400F34BFC7
:1028E000B3EB410F40E07CEBD1530CD342EA012122
:1028F00022D8D1EB402009D3400A28BF5FEA50011B
:1029000040EBCC507047401A15D04002B0FA80F22C
:10291000521C9040400A4FEA3C23B3EB026384BF51
:1029200000EB730007E040F400001A16DB07C2F169
:102930000102D04018437047182BFCDC31FA03F237
:1029400002FA03F3591A38BF42F00102D2EB4020D9
:102950003CBF4000ACF1010C5FEACC5CC20572F1F7
:1029600000414CEB5020704713EB400F0FD24B004F
:1029700009D0ACEBD153022B03DB4902172BDDDD71
:1029800070479143401A4300D5D10020704713EBA4
:10299000410FD0D36FF0000070470000FF2212EA11
:1029A000D05C1DBF12EAD153944593422BE09C4466
:1029B000D30780EA01021A4043EA002043EA0121DA
:1029C000A1FB0030410038BF40007CF17F010BDBF0
:1029D000FE294ADA5B0842EAC15153EA006373F107
:1029E000004C51EB10207047D1F1080CDCF12001B4
:1029F0002FDB5B0810FA01F10B4373F1004120FA61
:102A00000CF05041704794451CBF02EAD1539342E9
:102A100080EA010202F000421DD0400019D04900B6
:102A200017D05BB9634514D00902B1FA81F399401C
:102A3000BCEB030CC00140F00040C1E70002B0FA5B
:102A400080FC10FA0CF0B3EB0C0CC90141F0004112
:102A5000B6E71000704740000AD0490008D010F1D6
:102A6000807F94BF11F1807F02E042F0FF40704709
:102A7000D0437047EFF30980BFF36F8F1D4B1A6887
:102A800020E9F00F106008B54FF0500080F3118876
:102A9000BFF34F8FBFF36F8FFDF71AFE4FF00000AB
:102AA00080F31188BDE8084019680868B0E8F00FA5
:102AB00080F30988BFF36F8F70470E4B1968086861
:102AC000B0E8F00F80F30988BFF36F8F4FF000007C
:102AD00080F311884EF00D0E7047074800680068BB
:102AE00080F3088862B661B6BFF34F8FBFF36F8F74
:102AF00000DF0000983D002008ED00E070B5040004
:102B00000D002600002E05D1DFF8D01740F21B1073
:102B1000FEF794FBFEF70AFD3068F16B326C51430F
:102B2000084470600020B0633068B0603068F16BBA
:102B3000491E326C51430844F0605FF0FF3086F864
:102B400044005FF0FF3086F84500002D12D1306957
:102B5000002817D016F11000FDF788FE002811D0CC
:102B60005FF08050DFF878170860BFF34F8FBFF336
:102B70006F8F07E016F11000FEF722FC16F124001B
:102B8000FEF71EFCFEF7EDFC012070BD2DE9F843B9
:102B900004000D001600002C05D1DFF840174FF49B
:102BA000C470FEF74BFB002D02D10020804602E0EE
:102BB00005FB04F0804618F15000FEF749F90700C4
:102BC000002F0AD017F15000814600973300DBB286
:102BD0004A462900200000F003F83800BDE8F283DF
:102BE0002DE9F04104000D0016001F00DDF81880EB
:102BF000002D02D1C8F8008001E0C8F80060C8F8D4
:102C00003C40C8F8405001214046FFF777FF88F864
:102C10004C70BDE8F0812DE9F74304000D001E0063
:102C20005FF00008A146B9F1000F05D1DFF8AC163E
:102C300040F2D920FEF702FB002D03D1D9F8400065
:102C4000002801D1012000E00020C0B2002805D1F9
:102C5000DFF8881640F2DA20FEF7F0FA022E03D1F0
:102C6000D9F83C00012801D1012000E00020C0B2C9
:102C7000002805D1DFF8641640F2DB20FEF7DEFA0B
:102C8000FDF77EFF002802D10298002801D1012023
:102C900000E00020C0B2002805D1DFF8401640F265
:102CA000DE20FEF7CBFAFEF741FCD9F83800D9F860
:102CB0003C10884201D3022E28D132002900484618
:102CC00000F039FA0700D9F8240000280FD019F1D4
:102CD0002400FDF7CBFD002814D05FF08050DFF812
:102CE00000160860BFF34F8FBFF36F8F0AE0002F0D
:102CF00008D05FF08050DFF8E8150860BFF34F8F11
:102D0000BFF36F8FFEF72DFC012053E002980028DF
:102D100003D1FEF726FC00204CE0B8F1000F04D1EF
:102D20006846FDF7E7FD01208046FEF71AFCFDF737
:102D300091FBFEF7FBFB99F9440010F1010F02D162
:102D4000002089F8440099F9450010F1010F02D1E3
:102D5000002089F84500FEF704FC02A96846FDF74B
:102D6000DCFD002820D1484600F093FA002815D059
:102D7000029919F11000FDF736FD484600F042FABD
:102D8000FDF770FB00288ED15FF08050DFF8501502
:102D90000860BFF34F8FBFF36F8F84E7484600F0A2
:102DA00031FAFDF75FFB7EE7484600F02BFAFDF7AE
:102DB00059FB0020BDE8FE832DE9F84F04000D000B
:102DC00016001F00A246BAF1000F05D1DFF80C155E
:102DD00040F29F30FEF732FA002D03D1DAF84000BE
:102DE000002801D1012000E00020C0B2002805D158
:102DF000DFF8E8144FF46870FEF720FA022F03D1D1
:102E0000DAF83C00012801D1012000E00020C0B226
:102E1000002805D1DFF8C41440F2A130FEF70EFA05
:102E2000FEF7D2FBEFF311808146502080F311882A
:102E3000BFF34F8FBFF36F8FDAF83800DAF83C102A
:102E4000884201D3022F21D19AF945B03A002900D6
:102E5000504600F070F94FFA8BFB1BF1010F0ED1B9
:102E6000DAF8240000280ED01AF12400FDF7FEFC49
:102E7000002808D0002E06D00120306003E01BF1AE
:102E800001008AF845000120804601E000208046CC
:102E900089F311884046BDE8F28F2DE9F047040020
:102EA0000D00A046B8F1000F05D1DFF8301440F254
:102EB0003C40FEF7C3F9D8F84000002805D0DFF801
:102EC0001C144FF48860FEF7B9F9D8F80000002808
:102ED00003D1D8F80400002801D1012000E000202F
:102EE000C0B2002805D1DFF8F41340F24540FEF7E8
:102EF000A5F9FEF769FBEFF311800700502080F37E
:102F00001188BFF34F8FBFF36F8FD8F83890D8F880
:102F10003C00814520D298F945A019F10100C8F87C
:102F200038004FFA8AFA1AF1010F0ED1D8F82400AE
:102F300000280ED018F12400FDF798FC002808D0D6
:102F4000002D06D00120286003E01AF1010088F866
:102F500045000120060001E00020060087F31188EB
:102F60003000BDE8F0872DE9F44783B004000D0080
:102F70001E000027A146B9F1000F05D1DFF85C1350
:102F800040F2DC40FEF75AF9002D03D1D9F8400099
:102F9000002801D1012000E00020C0B2002805D1A6
:102FA000DFF8381340F2DD40FEF748F9FDF7E8FDA1
:102FB000002802D10398002801D1012000E0002060
:102FC000C0B2002805D1DFF814134FF49C60FEF75F
:102FD00035F9FEF7ABFAD9F838A0BAF1000F41D0B5
:102FE000D9F80C0080462900484600F0F3F8002E7E
:102FF0001FD1BAF10100C9F83800D9F80000002843
:1030000003D1FDF79DFEC9F80400D9F8100000288F
:1030100024D019F11000FDF729FC00281ED05FF024
:103020008050DFF8BC120860BFF34F8FBFF36F8F83
:1030300014E0C9F80C80D9F8240000280ED019F14A
:103040002400FDF713FC002808D05FF08050DFF863
:1030500090120860BFF34F8FBFF36F8FFEF781FAB6
:10306000012065E00398002803D1FEF77AFA0020DA
:103070005EE0002F04D16846FDF73CFC012007000C
:10308000FEF76FFAFDF7E6F9FEF750FA99F94400FA
:1030900010F1010F02D1002089F8440099F9450090
:1030A00010F1010F02D1002089F84500FEF759FA0E
:1030B00003A96846FDF731FC00282DD1484600F0F1
:1030C000D8F8002822D0D9F80000002807D1FEF750
:1030D0002DFAD9F80400FDF769FDFEF742FA0399CD
:1030E00019F12400FDF77FFB484600F08BF8FDF74F
:1030F000B9F900287FF46DAF5FF08050DFF8E01180
:103100000860BFF34F8FBFF36F8F62E7484600F050
:1031100079F8FDF7A7F95CE7484600F073F8FDF78A
:10312000A1F9484600F0A5F800283FF452AF00206E
:1031300004B0BDE8F0872DE9F04704000D0016004B
:103140000027A06B8046206C002809D12068002849
:103150003AD16068FDF780FD07000020606033E031
:10316000002E13D1D4F84090D4F808A04A46290084
:10317000504600F0EDFCA068216C0844A060A068F7
:103180006168884220D32068A0601DE0D4F8409098
:10319000D4F80CA04A462900504600F0D9FCE0685B
:1031A000216C49420844E060E0682168884204D20A
:1031B0006068216C49420844E060022E04D1B8F1F5
:1031C000000F01D0B8F1010818F10100A063380028
:1031D000BDE8F087F8B504000D00206C002810D081
:1031E000E068216C0844E060E0686168884201D3CF
:1031F0002068E060266CE76832003900280000F0A3
:10320000A7FCF1BD70B50400FEF790F994F94550A4
:103210006DB2012D0CDB606A002809D014F1240086
:10322000FDF724FB002801D0FDF7B8FB6D1EEFE78A
:103230005FF0FF3084F84500FEF793F9FEF776F96A
:1032400094F9446076B2012E0CDB2069002809D085
:1032500014F11000FDF70AFB002801D0FDF79EFBDA
:10326000761EEFE75FF0FF3084F84400FEF779F94F
:1032700070BD38B50400FEF759F9A06B002802D1E3
:103280000120050001E000200500FEF76AF9280092
:1032900032BD38B50400FEF749F9A06BE16B8842F6
:1032A00002D10120050001E000200500FEF759F9D8
:1032B000280032BD00231A00052A0ED2094B53F80C
:1032C0003230002B07D1074B43F83210054B03EB8C
:1032D000C203586001E0521CEEE770475C3E0008F4
:1032E00004ED00E0943C0020F8B504000D00160049
:1032F0002700FEF71BF997F9440010F1010F02D1E6
:10330000002087F8440097F9450010F1010F02D121
:10331000002087F84500FEF724F9B86B002805D196
:103320003200290017F12400FDF778FA3800FFF782
:1033300069FFF1BD4FF0807C1CEB400F94BF1CEB8C
:10334000410F05E040EA010C5FEA4C0C01D28142DA
:10335000704718BF884270474FF0807C1CEB400FCD
:1033600094BF1CEB410F05E040EA010C5FEA4C0CF6
:1033700001D28842704718BF8142704700B585B0BE
:10338000002000905FF4701001900C20029040200B
:10339000039000200490684600F050FC012000F0EB
:1033A00079FC4FF4805000F09FFC002000F082FC7C
:1033B000402000F073FC00F068FC012000F061FC8C
:1033C000012000F0A1FC0028FAD0102000F09CFCA5
:1033D0000028FAD04FF48041002000F077FC00F084
:1033E0008EFB05B000BDDFF84007006830F42040D8
:1033F000DFF834170860DFF83407006830F4204045
:10340000DFF828170860DFF820070068DFF82017CA
:10341000097850EA0130DFF810170860DFF80C0770
:103420000068DFF80C17497850EA0130DFF8FC1625
:1034300008607047F0B400240778203F15D07F1F44
:1034400031D07F1F14D0FF1E22D0BF1E24D07F1E7C
:10345000092F30D93D3F13D07F1E15D0423F1ED0DB
:103460007F1F09D04A3F22D02FE000273C004AE0CE
:103470004AF2DD073C0046E046F284073C0042E0A9
:103480004BF210273C003EE042F210273C003AE0AD
:103490004FF420473C0036E0C0273C0033E04FF4B7
:1034A0006C473C002FE04FF433473C002BE04FF6D5
:1034B000DD773C0027E0DFF87C7690F800C007EB72
:1034C0004C0737F8607C3C001DE007785B2F0BDA77
:1034D0000778412F08DBDFF8607690F800C007EB33
:1034E0004C0737F8827C3C0007787B2F0BDA077893
:1034F000612F08DBDFF8407690F800C007EB4C073F
:1035000037F8C27C3C00C9B2002901D054F0020453
:10351000D2B2002A01D054F020040C273D0000272D
:103520003E00F6B2042E09DAA4B227002F4117F0AC
:103530000F07F6B29F552D1F761CF2E7F0BC7047BF
:10354000F8B504000D0016001F006B463200D2B221
:103550002900C9B22000FFF76DFFFFB2012F0ED086
:10356000C0F0A682032F00F0F88071D3052F00F081
:10357000CA81C0F05B81062F00F0298298E2DFF853
:10358000BC050068DFF8B8150840DFF8B015086022
:10359000DFF8B0050068DFF8A8150840DFF8A415CB
:1035A0000860DFF884050068DFF894150840DFF84C
:1035B00078150860DFF874050068DFF884150840A6
:1035C000DFF868150860DFF8740500689DF80010E2
:1035D000890611F040519DF8002012F003021143BA
:1035E0000843DFF858150860DFF8580500689DF8B3
:1035F0000110890611F040519DF8012012F00302DC
:1036000011430843DFF83C150860DFF81C0500682B
:103610009DF80210890611F040519DF8022012F029
:10362000030211430843DFF800150860DFF8FC04CB
:1036300000689DF80310890611F040519DF80320A1
:1036400012F0030211430843DFF8E01408602FE290
:10365000DFF8E8040068DFF8F0140840DFF8DC1455
:103660000860DFF8E0040068DFF8DC140840DFF8E9
:10367000D4140860DFF8B0040068DFF8CC14084008
:10368000DFF8A4140860DFF8A4040068DFF8B814B9
:103690000840DFF898140860DFF8A00400689DF87F
:1036A0000010090611F040619DF80020920112F00F
:1036B000800211439DF80020920012F00402114391
:1036C0000843DFF878140860DFF8780400689DF894
:1036D0000110090611F040619DF80120920112F0DD
:1036E000800211439DF80120920012F00402114360
:1036F0000843DFF850140860DFF82C0400689DF8D8
:103700000210090611F040619DF80220920112F0AA
:10371000800211439DF80220920012F0040211432E
:103720000843DFF804140860DFF8000400689DF81F
:103730000310090611F040619DF80320920112F078
:10374000800211439DF80320920012F004021143FD
:103750000843DFF8D8130860AAE1DFF8E003006847
:1037600030F00320DFF8D4130860DFF8D8030068D6
:1037700030F00320DFF8CC130860DFF8AC030068FA
:1037800030F00320DFF8A0130860DFF8A003006822
:1037900030F00320DFF894130860DFF8A00300681E
:1037A0009DF80010890511F040719DF8002012026B
:1037B00012F4407211430843DFF880130860DFF809
:1037C000840300689DF80110890511F040719DF88F
:1037D0000120120212F4407211430843DFF864130F
:1037E0000860DFF8440300689DF80210890511F0B5
:1037F00040719DF80220120212F4407211430843F6
:10380000DFF824130860DFF8240300689DF8031034
:10381000890511F040719DF80320120212F44072E4
:1038200011430843DFF80413086041E1DFF80C039B
:103830000068DFF818130840DFF800130860DFF8AD
:1038400004030068DFF804130840DFF8F81208608A
:10385000DFF8D4020068DFF8F4120840DFF8C8127D
:103860000860DFF8C8020068DFF8E0120840DFF8FF
:10387000BC120860DFF8C40200689DF800108904DB
:1038800011F440119DF80020920212F4406211439D
:103890000843DFF8A8120860DFF8A80200689DF866
:1038A0000110890411F440119DF80120920212F4D4
:1038B000406211430843DFF88C120860DFF86802A9
:1038C00000689DF80210890411F440119DF802204F
:1038D000920212F4406211430843DFF84C12086070
:1038E000DFF8480200689DF80310890411F44011C4
:1038F0009DF80320920212F4406211430843DFF85E
:103900002C120860D4E0DFF83402006830F4432061
:10391000DFF828120860DFF82C02006830F443203A
:10392000DFF820120860DFF80002006830F4412060
:10393000DFF8F4110860DFF8F401006830F441208A
:10394000DFF8E8110860DFF8F40100689DF8001066
:10395000090411F440219DF80020120312F4405292
:1039600011430843DFF8D4110860DFF8D80100687C
:103970009DF80110090411F440219DF80120120363
:1039800012F44052114308436E49086066480068CB
:103990009DF80210090411F440219DF80220120341
:1039A00012F48052114308435F4908605F48006881
:1039B0009DF80310090411F440219DF8032012031F
:1039C00012F48052114308435849086070E05B4884
:1039D000006830F47030594908605A48006830F483
:1039E0007030584908605048006830F470304E49D3
:1039F00008604E48006830F470304C4908604F4809
:103A000000689DF80010C90311F400319DF80020F2
:103A1000520312F4803211439DF80020920312F4F5
:103A200040421143084345490860464800689DF8F4
:103A30000110C90311F400319DF80120520312F462
:103A4000803211439DF80120920312F44042114349
:103A500008433C490860344800689DF80210C903D7
:103A600011F400319DF80220520312F48032114308
:103A70009DF80220920312F48042114308432A4920
:103A800008602A4800689DF80310C90311F400314A
:103A90009DF80320520312F4803211439DF8032055
:103AA000920312F480421143084320490860FFE763
:103AB000FFF799FCF1BD38B504000125042000F0A2
:103AC00023F90028FAD12078002801D0012000E055
:103AD0000020EDB2082D01DA012100E00021C0B282
:103AE000084209D02B00DBB2002200212000FFF7A2
:103AF00027FD641C6D1CE6E700F002F931BD10B52E
:103B00000024042000F000F90028FAD1002004006D
:103B1000102C05D20020094941F82400641CF7E765
:103B200000F0EEF810BD0000242400402C240040DA
:103B3000F43D0020FC4000085C3F000814240040D5
:103B4000FCFFFFCF1C24004003FFFFF3FFF3CFFF78
:103B500062B38B0708D0521E11F8013B00F8013BFD
:103B600000F024808B07F6D1830740F0208000BF4F
:103B7000103A07D330B4B1E83810103AA0E8381042
:103B8000F9D230BC530724BFB1E80810A0E80810F0
:103B900044BF51F8043B40F8043BD20724BF31F83E
:103BA000022B20F8022B44BF0B7803707047083AB1
:103BB00007D3B1E80810083A40F8043B40F804CBBA
:103BC000F7D25307E4E70000421A3CBF801A891875
:103BD0004FF0004CC0F3C752FF2A24D0C1F3C753A3
:103BE00013B3D21AD2F1190327DD4CEA01214CFAA2
:103BF00003F321EA0303D140C20D4CEA0020401830
:103C000034BF20EA0C004CEA5000D20553EA0063AE
:103C100073EB0C0C52EB1020420012F1807F38BF86
:103C20007047C00DC0057047490212BF9A4200EBB1
:103C30005120F8E7D2F11703D9D5704710B5040029
:103C40003848006830F07F703649086035480068B1
:103C500021686268114308433249086000F015F892
:103C60003148006830F07E002F4908602E48006817
:103C7000A168E26811432269114308432A49086098
:103C800010BDC0B229490860704729480068800605
:103C9000FBD57047C0B227490860704721490968C1
:103CA00031F070011F4A11601E49096801431D4A25
:103CB000116070471B49096831F46071194A11603D
:103CC000184909680143174A11607047154A12687C
:103CD00032F47832134B1A60124A126851EA000328
:103CE0001A43104B1A6070470E49096831F4E051CD
:103CF0000C4A11600B49096801430A4A1160704778
:103D000001200D490860704701000020084A126830
:103D10000A4202D00122100001E000221000C0B2CD
:103D2000704700000424004000240040008004424A
:103D3000082400401C8004420881044280B51948D0
:103D4000006810F1010F16D1002000906946144858
:103D50000068FFF7A2F8144800681249086000984C
:103D6000002819D05FF0805010490860BFF34F8FD2
:103D7000BFF36F8F10E00B4800680D490968081801
:103D8000084908600B48006806490968884203D260
:103D90005FF0FF30034908600120FEF7EFFC01BD32
:103DA000883D0020000000208841000804ED00E06C
:103DB0008C41000884410008463A5C53747564796C
:103DC0005C323032425C50726F6A6563745C46727A
:103DD000656552544F5376392E302E305C467265ED
:103DE0006552544F535C536F757263655C706F72AC
:103DF0007461626C655C4941525C41524D5F434D58
:103E0000335C706F72742E6300000000463A5C539E
:103E1000747564795C323032425C50726F6A6563EB
:103E2000745C4672656552544F5376392E302E308D
:103E30005C4672656552544F535C536F757263658F
:103E40005C706F727461626C655C4D656D4D616E26
:103E5000675C686561705F342E630000463A5C53AE
:103E6000747564795C323032425C50726F6A65639B
:103E7000745C4672656552544F5376392E302E303D
:103E80005C4672656552544F535C536F757263653F
:103E90005C71756575652E6300000000463A5C53E1
:103EA000747564795C323032425C50726F6A65635B
:103EB000745C4672656552544F5376392E302E30FD
:103EC0005C4672656552544F535C536F75726365FF
:103ED0005C7461736B732E6300000000463A5C53A0
:103EE000747564795C323032425C50726F6A65631B
:103EF000745C4672656552544F5376392E302E30BD
:103F00005C4672656552544F535C536F75726365BE
:103F10005C74696D6572732E6300000019E050F8DF
:103F2000041BCB0744BFA9F101035918121F00233A
:103F3000042A41F8043BF9D25FEA827C0B4604D59F
:103F40004FF0000CA1F800C09B1CD10744BF00211A
:103F5000197050F8042B002AE1D1704700FE146755
:103F6000001D1447009D009C003F00FA1400005300
:103F700041980019485A095A005F00FC015F01FC92
:103F800000AF1404005BC018815AC9005800C00576
:103F900010B450F8041B79B1026843680244083039
:103FA000DC0744BFA9F10104E31852F8044B43F8BD
:103FB000044B091FF9D1ECE710BC70476400000006
:103FC000AAAAAAAA000800000024F4000304060814
:103FD0000C1018203000000000000000000000005D
:103FE000010203040607080910B50749794418318E
:103FF000064C7C44163404E00A68081D11448847C6
:104000000146A142F8D110BD7400000094000000E8
:10401000000000008000000090000000A0000000F0
:10402000B0000000C0000000D0000000E000000070
:10403000F000000000080000001000000010000068
:104040000010000000180000001800000018000018
:1040500000180000001800000021020911008AB2B7
:1040600052F08002044B1B6813F0800373EA0202D3
:10407000014B1A60704700000C280040A1FEFFFFB2
:10408000C8390000300400200000000005FFFFFFD9
:104090002C00000028FFFFFF0000002000000000AF
:1040A0007047FEE7FEE7FEE7FEE7FEE780B54FF468
:1040B0008040FFF7D1FF5FF48010FEF75FFB01BD8A
:1040C00000F00BF8002801D0FFF78EFF0020AFF3BF
:1040D0000080FDF729F800F002F80120704700F099
:1040E00001B800000746384600F002F8FBE7000080
:1040F0002021090326311820ABBEF9E7005F0042FA
:1041000000F5006700EA00AF00BF004600FF00EFC7
:104110000000000000000000010203040607080977
:104120000148804701480047012200085541000826
:104130005461736B3154696D657200005461736B27
:104140003254696D657200005461736B3354696D4C
:1041500065720000AFF30080AFF30080FFF7B0FF9F
:10416000462752544F53000049444C45000000007C
:10417000546D722053766300546D7251000000003C
:1041800008000000F401000064000000C800000006
:10419000F0E300E0FFF784BFFFF783BFFFF782BFC4
:1041A000FFF781BFFFF780BFFEF787BCFFF77DBF3A
:1041B000FEF760BCFFF7FEBFFFF7FEBFFFF7FEBFD5
:1041C000FFF7FEBFFFF772BFFFF7FEBFFFF7FEBFAF
:1041D000FFF7B4BDFFF7FEBFFFF7FEBFFFF7FEBF5F
:1041E000FFF7FEBFFFF7FEBFFFF7FEBFFFF7FEBF03
:1041F000FFF7FEBFFFF7FEBFFFF7FEBFFFF7FEBFF3
:10420000FFF7FEBFFFF7FEBFFFF7FEBFFFF7FEBFE2
:10421000FFF7FEBFFFF7FEBFFFF7FEBFFEF769B96E
:10422000FDF7CAB9FDF760B8FFF7FEBFFFF7FEBFA5
:10423000FFF7FEBFFFF7FEBFFFF7FEBFFFF7FEBFB2
:10424000FFF7FEBFFFF7FEBFFFF7FEBFFFF7FEBFA2
:10425000FFF7FEBFFFF7FEBFFFF7FEBFFFF7FEBF92
:0C426000FFF7FEBFFFF7FEBFFFF7FEBF39
:040000050800415559
:00000001FF
